:020000040800F2
:10000000987A002049010008632B00087D0E000843
:10001000612B0008090700084140000800000000AB
:10002000000000000000000000000000E7360008AB
:100030000B07000800000000D5310008D937000880
:100040006301000863010008630100086301000800
:10005000630100086301000863010008210800082B
:1000600061080008A1080008E10800086301000811
:1000700063010008630100086301000863010008D0
:1000800063010008630100086301000863010008C0
:1000900063010008630100086301000865090008A6
:1000A00063010008630100086301000863010008A0
:1000B00063010008630100081539000863010008A6
:1000C0006301000863010008630100086301000880
:1000D00063010008B53D000863010008193E0008EF
:1000E0004507000863010008630100086301000878
:1000F0006301000863010008630100086301000850
:10010000630100086301000863010008630100083F
:1001100063010008630100080D3A0008953A0008E1
:10012000630100086301000863010008630100081F
:10013000DFF810D000F02EFA00480047ED4C000820
:10014000AFF30080987A00200648804706480047B1
:10015000FEE7FEE7FEE7FEE7FEE7FEE7FEE7FEE777
:10016000FEE7FEE7DD37000831010008421C10F809
:10017000011B0029FBD1801A704710B5002200E056
:10018000521C835C8C5CA34201D1002BF8D1D8B205
:10019000E1B2401A10BD30B50B46014600202022C6
:1001A000012409E021FA02F59D4205D303FA02F584
:1001B000491B04FA02F52844151EA2F10102F1DCE4
:1001C00030BD2DE9F05F0546002092469B468846EB
:1001D0000646814640241BE02846414647462246C3
:1001E00000F0F9F953465A46C01A914110D311460E
:1001F0001846224600F0E0F92D1A67EB01084F4639
:1002000022460120002100F0D7F917EB00094E41EA
:10021000201EA4F10104DFDC484631462A4643464D
:10022000BDE8F09F2DE9FE4F804681EA0300C00F34
:100230000C46009021F0004123F00045B8EB02008D
:10024000A94105D24046214690461C460B4602462F
:1002500023F00040104347D0270DC7F30A00C3F333
:100260000A510290401A019040286BDAC3F3130040
:1002700040F4801B0098924620B10023D2EB030A81
:1002800063EB0B0B01985946C0F14002504600F059
:1002900093F906460D4650465946019A00F0ABF9CF
:1002A00010EB08006141002487EA115284EAE773E9
:1002B0001A4340D0009A62B3019A012A4FEA0752CA
:1002C00015DC001B61EB02014FF0004202EA07520D
:1002D000CDE90042001C41F5801132462B4600F06A
:1002E000ABF903B0BDE8F08F40462146F9E7001BAB
:1002F00061EB0201001C41F5801300185B412018DE
:10030000A2F5001747EB030140EAD570B6196D411D
:1003100011E06D084FEA360645EAC0754FEA07520C
:10032000001B61EB0201001C41F5801149084FEAF6
:1003300030000019514132462B4603B0BDE8F04F62
:1003400000F06BB90098012240000023D0EB0202BC
:1003500063EBE073009821464FEAE074B8EB0000CD
:1003600061EB0401E9E783F000435BE781F00041C2
:1003700058E72DE9FE4F81EA030404F0004421F020
:10038000004100944FF0000B23F0004350EA0104B9
:100390005ED052EA03045BD0C3F30A54C1F30A559A
:1003A0002C44A4F2F3340194A0FB0254C1F31301D2
:1003B00041F48011C3F3130343F4801301FB02449F
:1003C00000FB034E840A970A44EA815447EA8357A4
:1003D000A4FB076802958D0A05FB07854FEA932C5D
:1003E00004FB0C542705029D4FEA065847EA1637CE
:1003F000B5EB08056EEB070C870E920E47EA8117E6
:1004000042EA8312A7FB0201B6EB0B0164EB000486
:100410002B0D43EA0C335E1844EB1C50DA46514670
:10042000E7FB0201C5F313044FEA0B3343EA14530D
:100430004FEA0432019C43EA0603A4F10C0402943F
:10044000009CCDE900B400F0F7F803B0BDE8F08FF0
:1004500000200146F9E72DE9F04D81EA030404F09C
:10046000004B21F0004514464FF0000A23F00041F4
:1004700050EA050220D054EA01021DD0C5F30A5704
:100480000246C5F31303C1F31300C1F30A5640F447
:10049000801543F48013A7EB0608101BD64608F21C
:1004A000FD3873EB050002D308F1010801E0921852
:1004B0005B41B8F1000F03DA00200146BDE8F08D82
:1004C00000204FF48011064684460EE0171B73EBA4
:1004D000050705D3121B63EB050306434CEA010C29
:1004E00049084FEA300092185B4150EA0107EDD10C
:1004F00052EA030012D082EA040083EA05010843AD
:1005000005D0101BAB4106D20122002306E00022D9
:100510004FF0004302E06FF0010253101AEB0600A7
:100520004CEB085110EB0A0041EB0B01BDE8F04D1C
:1005300000F073B8C1F30A52C1F3130140F2FF3364
:1005400041F480119A4202DA00200146704740F2DD
:1005500033439A42A2F2334202DC524200F03BB8EB
:1005600000F02AB830B5041E71F1000404DB4FF02E
:100570000044404264EB0101141E73F1000405DBEA
:100580001C464FF00043524263EB0403994208BFFC
:10059000904230BD064C074D06E0E06840F0010394
:1005A00094E8070098471034AC42F6D3FFF7C4FD37
:1005B0006C6D00088C6D0008202A04DB203A00FADC
:1005C00002F1002070479140C2F1200320FA03F3AA
:1005D000194390407047202A04DB203A21FA02F0A8
:1005E0000021704721FA02F3D040C2F1200291406D
:1005F000084319467047202A06DBCB17203A41FAF8
:1006000002F043EAE07306E041FA02F3D040C2F19F
:100610002002914008431946704710B5141E73F12B
:10062000000408DA401C41F1000192185B411A43B2
:1006300001D120F0010010BD2DE9F04D92469B46FE
:1006400011B1B1FA81F202E0B0FA80F220329046A4
:10065000FFF7B2FF04460F4640EA0A0041EA0B01E9
:1006600053465A46084313D0114653EA010019D0A5
:10067000C8F140025046FFF7AEFF05460E46504611
:1006800059464246FFF798FF084305D0012004E091
:1006900020463946BDE8F08D0020054346EAE07665
:1006A0002C4337430A986305E40AA0EB08000022B4
:1006B000FD0A44EA47540A3002D500200146E9E722
:1006C000010510196941DDE9084500196941BDE8D6
:1006D000F04DA2E70A480122C0F880210021C0F8AD
:1006E0008411C0F8B021C0F8B411C0F8B821C0F826
:1006F000AC110448C0F89421C0F89811704700006C
:100700000000214200802342FEE7704770B50B4D88
:1007100004460B4E6888001B81B2304603F0CAFACB
:10072000A888001B81B2304603F0C6FAE888001B97
:1007300081B23046BDE8704003F0C0BA60000020CE
:100740000008004070B54FF48056304600F032F992
:10075000314C324D90B1304600F026F9D5F83001D9
:100760000028D5F8340102D0012801D103E010B1EE
:100770006068401E01E06068401C60604FF40056F5
:10078000304600F017F990B1304600F00DF9D5F879
:1007900034010028D5F8300101D010B904E0012857
:1007A00002D06068401E01E06068401C60604FF449
:1007B0008046304600F0FEF890B1304600F0F4F884
:1007C000D5F838010028D5F83C0102D0012801D124
:1007D00003E010B1A068401E01E0A068401CA060CA
:1007E0004FF40046304600F0E5F800280FD03046C0
:1007F00000F0DAF8D5F83C010028D5F8380101D02E
:1008000030B101E0012803D0A068401EA06070BD97
:10081000A068401CFAE7000050000020008023423E
:1008200010B5022000F0C6F8002810D0022000F019
:10083000BBF80949D1F804210848D1F8081112B1D0
:10084000012905D000E019B10168491E016010BD01
:100850000168491CFAE70000008021425000002096
:1008600010B5042000F0A6F8002810D0042000F0F5
:100870009BF80949D1F808210848D1F804110AB1B8
:1008800031B101E0012903D00168491E016010BDAA
:100890000168491CFAE70000008021425000002056
:1008A00010B5082000F086F8002810D0082000F0CD
:1008B0007BF80949D1F80C210848D1F8101112B180
:1008C000012905D000E019B1C168491EC16010BD01
:1008D000C168491CFAE70000008023425000002054
:1008E00010B5102000F066F8002810D0102000F09D
:1008F0005BF80949D1F810210848D1F80C110AB168
:1009000031B101E0012903D0C168491EC16010BDA9
:10091000C168491CFAE70000008023425000002013
:100920003EB50821002000F001F94FF4807000244A
:1009300000908DF8044008208DF8050001258DF801
:100940000650684600F046F817208DF808008DF82C
:1009500009408DF80A408DF80B5002A802F002F908
:100960003EBD000010B54FF48074204600F022F820
:1009700001280DD109490020C1F898010122C1F8D0
:1009800098210748C0F88C2106480178491C01705D
:100990002046BDE8104000F007B800000080224269
:1009A000008021424C00002001490860704700008F
:1009B00014040140064A014600201268044B0A4014
:1009C00014331B680B4202D0002A00D0012070476C
:1009D0000004014030B51A498379026853B30B68AB
:1009E00093430B600A1D13680468A34313600279E4
:1009F0000A441368046823431360114A08321368D9
:100A00000468A3431360131D1C680568AC431C6095
:100A10004479102C05D021440A68006802430A601A
:100A200030BD1168046821431160196800680143F2
:100A3000196030BD0079084401689143016030BD00
:100A4000000401408000A0F1C0400029016802D0EC
:100A500041F0010101E0024A1140016070470000CD
:100A6000FEFF0F0010B5D0E901121143D0E90323B6
:100A70001A4311434269114382691143C269114308
:100A8000026A1143426A1143826A1143C26A1143E6
:100A9000026B114302689200A2F1C04211608168AA
:100AA000082907D101688900A1F1C0410A6842F014
:100AB00040020A60416BD1E9002342EA03128B68CD
:100AC0008C891B0243EA04431A430B8A42EA03520D
:100AD0000B7D896942EA03620A4301688900A1F13A
:100AE000C0414A60C16AB1F5804F08D000686FF01C
:100AF00070418000A0F1C040C0F8041110BD816BAE
:100B0000D1E9002342EA03128B680C8A1B0243EAF4
:100B100004531A430B7D896942EA036200680A4361
:100B20008000A0F1C040C0F8042110BD10B58A07B4
:100B300021F003040649130F21440F228C689A40C8
:100B400094438C608A68984002438A6010BD00001C
:100B500000000140F0B5CA78002502F00F03D2066C
:100B600001D58A7813430A784FF00F0E12F0FF0F69
:100B70004FF001021CD004680F8802FA05F63740D6
:100B8000B74211D14FEA850C0EFA0CF724EA070799
:100B900003FA0CF43C43CF78282F02D0482F02D020
:100BA00002E0466100E006616D1C082DE4D304609C
:100BB0000C88FF2C1ED944685FF0000606F1080778
:100BC00002FA07F50F882F40AF420FD14FEA860C8B
:100BD0000EFA0CF7BC4303FA0CF73C43CF78282FEE
:100BE00000D14561CF78482F00D10561761C082ED1
:100BF000E4D34460F0BD0000F0B5144C002801DAE5
:100C0000E36900E06368420D120185B2C0F3015749
:100C10009540C0F30346032F05D0C2020AD5032234
:100C2000B240934307E023F07062636823F070637F
:100C3000636002E0AB4343F0706201B12A430028D5
:100C400001DAE261F0BD6260F0BD00000000014029
:100C50000161704710B502F021FD0549FE280880AA
:100C600001D0002010BD03A003F0ECF9012010BD5D
:100C7000600000204D41535445524F4B0D0A000077
:100C80000A480022C0F880210121C0F88411C0F870
:100C9000B021C0F8B411C0F8B821C0F8AC110448B4
:100CA000C0F89421C0F8981170470000000021425C
:100CB000008023422DE9F05F0F254FF0010BDFF894
:100CC00070904FF0000A1B4CDFF86C8022E000BFF0
:100CD000C9F890B10A2003F0C9FF18A004F012FB74
:100CE00000260A2003F0C2FF2088000403D4761CEB
:100CF000F6B2142EF5D35046C9F890A12188090404
:100D000008D521882080CFB20D2F03D198F800009C
:100D10002B2804D06D1EEDB2DAD22DB105E098F883
:100D200006003038C7B2F8E7FF273846BDE8F09F25
:100D300000002142700000201E71002041542B52FF
:100D40004F4C453F0D0A00002DE9F84F01260A25BA
:100D50003146042002F064FAF003ADF800004820A8
:100D60008DF803002F4F03248DF802406946384662
:100D7000FFF7F0FE1020ADF800008DF803008DF8AD
:100D8000024069463846FFF7E5FE10213846FFF776
:100D90005FFF01212448FFF72FFF244C0127C4F8EF
:100DA0009071C4F83C714FF4165004F021FBA14639
:100DB000BA464FF000081E4CDFF878B026E04F46E8
:100DC000C9F890A10A2003F051FF1BA004F09AFA81
:100DD000C7F8908100272088000406D4052003F07E
:100DE00045FF7F1CFFB20A2FF5D3208800040DD5E4
:100DF0002088A4F80080C6B2042E07D19BF800100A
:100E00004F2903D19BF801004B2804D06D1EEDB291
:100E1000D5D215B102E00026FBE701263046BDE839
:100E2000F88F00000008014000023000000021425D
:100E3000700000201E71002041540D0A00000000C7
:100E40001CB5FFF737FF1021012809D005A0CDE917
:100E500000101023C82296211E2001F01CFE1CBD8C
:100E600003A0F4E7524F4C453A536C61766520007D
:100E7000524F4C453A4D617374657200FEE70000B5
:100E800070B50B4D04460B4E6888204481B2304645
:100E900002F010FFA888204481B2304602F00CFF17
:100EA000E888204481B23046BDE8704002F006BFB9
:100EB00060000020000800402DE9F043174C8146F7
:100EC0000025208866884643A088A0F5D0410439D3
:100ED00002D1A079012807D00021084601F0D4FBF7
:100EE00001F004FE0E4814E00020A0712A2767815B
:100EF0004FF02B08A4F80C80014601F0C5FB01203F
:100F0000A071A4F80A80A781EAE700BFA0F80090CA
:100F10006D1CB542FAD3BDE8F083000010710020CB
:100F20000008006C2DE9F04F4A492A242B258988B6
:100F300045F2105A4FF4305B4FF4285E4FF4487678
:100F40004FF0F00C49F241394FF4A07345F21037DD
:100F50004FF4F07280B13F484FF00108494580F8E6
:100F600006800380A0F802C001D0B9423ED12C26F1
:100F700006814481858157E036484FF00008494595
:100F800080F80680A0F800C0438006D0A1F5D04CC0
:100F9000BCF1040C01D0B9420CD12C26068144814D
:100FA000A1F5D0448581043C01D0B94244D10380ED
:100FB000428041E0514507D1A0F808B0A0F80AE00E
:100FC0004FF42C5181810EE0A1F5C853633B06D04C
:100FD0002221018120214181212181812CE02C21AC
:100FE0000181458184810280468025E0A1F5D04CB5
:100FF000BCF1040C09D051450BD1A0F808B0A0F801
:101000000AE04FF42C54848121E02C26068145818E
:1010100009E0A1F5C85CBCF1630C12D02224048164
:101020002124448120248481A1F5D044043C01D0B2
:10103000B94201D102804380BDE8F04F002001F0A9
:101040004FBA4FF02C0CA0F808C04481858106806F
:101050004280E9E7107100202DE9F04FDFF80081B0
:101060000C460146060A40469346B8F80450DFF89D
:10107000F4A08289230A4089A5F513470AF10209E1
:10108000413F19D0A5F5A647103F15D0A5F5AA47B1
:10109000103F15D04746A5F5C85CBE793F887F1A3A
:1010A0007F1EBCF1630C20D0A5F5D04CBCF1040C24
:1010B00033D0012E43D043E05546AAF8000033E078
:1010C000AAF80000A9F80060401CAAF80000C8B205
:1010D000A9F80000AAF80020A9F80030521CAAF8CC
:1010E0000020E0B2A9F8000031E006B9B9B2AAF8D0
:1010F00000000D0A4846A9F80050CFB2A9F80070C8
:10110000A9F80050C9B2A9F80010AAF80020A9F85F
:101110000030E1B2A9F800100DE0012E00D1B9B203
:101120005546AAF800000E0A4846A9F80060C9B260
:10113000A9F800102A800380E1B2018007E0B9B26B
:1011400001F0DEFCB8F80C00214601F0D9FCB8F83B
:101150000810AAF80010A9F800B0BDE8F08F000050
:1011600010710020FE07006C2DE9F8431F4C1E464D
:101170008046A388089FA3F5D040043802D1A07907
:10118000012807D0A2EB0800401C84B20D46DFF80E
:10119000609028E025880846A91AA5EB08030025D9
:1011A000A57132462A2565812B26491E5B1EA68124
:1011B00089B29BB20097FFF7D7FF0120A07166812B
:1011C000A581BDE8F8832946404601F05DFA01F0AB
:1011D0008DFC0020494602E00F80401C80B2A042F6
:1011E000FAD36D1CADB2B542EDD9EAE7107100201B
:1011F0000008006C2DE9F04F01219FB0080201F0BA
:10120000EBFF01214FF4B47002F00AF84FF001082F
:10121000ADF83C8010268DF83F60032447468DF8DA
:101220003E400FA9FE48FFF795FC4CF23370ADF835
:101230003C0018258DF83F508DF83E400FA9F94825
:10124000FFF788FC4FF68070ADF83C008DF83F50FA
:101250008DF83E400FA9F448FFF77CFC41F20100F5
:10126000ADF83C008DF83F508DF83E400FA9EF4897
:10127000FFF770FC00200F211097CDE911011390AA
:101280001490CDE918041590169017901A90062125
:101290001B901C90CDE90010CDE902061D90049032
:1012A0003102CDE908010690059007908900CDE94B
:1012B0000A010C9010A80D9017A80E906846FFF731
:1012C000D1FB01210620FFF7BDFB322003F0CEFC4D
:1012D000002001F0F9F8D64CD64D49F24139A080F2
:1012E00045F210574FF6FF76FF2804D3B04202D0E4
:1012F000B0F5134F73D1D320288001F0DBF8A08024
:1013000001F0D8F8A08001F0D5F806EA0020A0800E
:1013100001F0D0F8A1880843A08048455FD0BF20E5
:10132000288001F0C7F8A08001F0C4F8A08001F087
:10133000C1F8A08001F0BEF806EA0020A08001F00C
:10134000B9F8A1880843A0F5D041A080043946D05F
:10135000D420288001F0AEF8A08001F0ABF8A08086
:1013600001F0A8F806EA0020A08001F0A3F8A18807
:101370000843A0F5A641A080103930D04FF45A4060
:10138000288001F097F8A0804FF45B40288001F09E
:1013900091F806EA0020A0804FF45C40288001F01C
:1013A00089F8A1880843A080B0F5004F7ED0B842EC
:1013B00015D0A120288001F07DF8A08001F07AF8F6
:1013C00006EA0020A08001F075F8A1880843A0F586
:1013D000AE41A080613902D141F66310A080A1889E
:1013E00095A002F02FFEA08848457DD1CF2028800F
:1013F00090480021801C0180C121018030210180A2
:10140000ED212980642101800321018012210180C6
:1014100081210180E821298085210180102101801E
:101420007A210180CB212980392101802C21018062
:10143000002101803421018002210180F7212980CF
:1014400020210180EA212980002101800180C02122
:1014500029801B210180C121298001210180C52112
:101460002980302101800180C7212980B721018096
:1014700036212980482101803A2129805521018087
:10148000B1212980002101801A210180B621298003
:101490000A210180A2210180F221298000210180FE
:1014A0002621298001210180E02100E054E02980EB
:1014B0000F2101802A21018028210180082101803B
:1014C0000E2101800821018054210180A921018081
:1014D000432101800A2101800F2101800021018028
:1014E00001800180018000E038E0E12129800021B5
:1014F0000180152101801721018007210180112120
:101500000180062101802B210180562101803C2190
:10151000018005210180102101800F2101803F21E0
:10152000018001800F2101802B2129800021018071
:101530000180012101803F2101802A212980002191
:10154000018001800180EF21018011202880782016
:1015500003F08CFB2920FDE3A78040E7B84273D15C
:101560004FF470435521184601F0CAFA4FF20104B6
:10157000AA21204601F0C4FA671C5221384601F026
:10158000BFFA4FF203090821484601F0B9FA4FF2B9
:10159000040A0121504601F0B3FA0D214FF4304006
:1015A00001F0AEFA0D214BF2010001F0A9FA0D2174
:1015B0004BF2020001F0A4FA4FF4364B34215846A6
:1015C00001F09EFA34214BF2016001F099FA3421C6
:1015D0004BF2026001F094FA0D214FF4314001F01A
:1015E0008FFA0D214BF2011001F08AFA0D214BF216
:1015F000021001F085FA34214FF4374001F080FAEF
:1016000034214BF2017001F07BFA34214BF202706D
:1016100001F076FA00214FF4324001F071FA14E043
:10162000000C01400014014000180140002001405E
:1016300010710020FE07006C204C43442049443ABE
:1016400025780D0A00000000FEE300214BF2012086
:1016500001F056FA00214BF2022001F051FA242148
:101660004FF4384001F04CFA24214BF6010001F010
:1016700047FA24214BF6020001F042FA01214FF40F
:101680003F4001F03DFA0F214FF4334001F038FAAA
:101690000F214BF2013001F033FA0F214BF20230EF
:1016A00001F02EFA34214FF4394001F029FA3421A7
:1016B0004BF6011001F024FA34214BF6021001F030
:1016C0001FFA08214FF4354001F01AFA08214BF2B5
:1016D000015001F015FA08214BF2025001F010FA06
:1016E00003214FF4424001F00BFA24214FF43A4019
:1016F00001F006FA24214BF6012001F001FA242121
:101700004BF6022001F0FCF900214FF43C4001F0BF
:10171000F7F978214BF6014001F0F2F900214BF680
:10172000024001F0EDF900214FF43D4001F0E8F9ED
:1017300078214BF6015001F0E3F900214BF60250FD
:1017400001F0DEF900214FF43E4001F0D9F96421A7
:101750004BF6016001F0D4F900214FF4514001F043
:10176000CFF933214DF2011001F0CAF900214DF2F9
:10177000021001F0C5F934214DF2031001F0C0F957
:1017800000214DF2041001F0BBF93A214DF2051091
:1017900001F0B6F900214DF2061001F0B1F94A212D
:1017A0004DF2071001F0ACF900214DF2081001F0E4
:1017B000A7F95C214DF2091001F0A2F900214DF2C8
:1017C0000A1001F09DF981214DF20B1001F098F9FA
:1017D00000214DF20C1001F093F9A6214DF20D10ED
:1017E00001F08EF900214DF20E1001F089F9E5218A
:1017F0004DF20F1001F084F901214DF2101001F0AB
:101800007FF913214DF2111001F07AF901214DF207
:10181000121001F075F954214DF2131001F070F916
:1018200001214DF2141001F06BF982214DF21510D7
:1018300001F066F901214DF2161001F061F9CA219B
:101840004DF2171001F05CF902214DF2181001F071
:1018500057F900214DF2191001F052F902214DF211
:101860001A1001F04DF901214DF21B1001F048F959
:1018700002214DF21C1001F043F934214DF21D10EC
:1018800001F03EF902214DF21E1001F039F96721F5
:101890004DF21F1001F034F902214DF2201001F039
:1018A0002FF984214DF2211001F02AF902214DF285
:1018B000221001F025F9A4214DF2231001F020F9A6
:1018C00002214DF2241001F01BF9B7214DF2251031
:1018D00001F016F902214DF2261001F011F9CF2185
:1018E0004DF2271001F00CF902214DF2281001F001
:1018F00007F9DE214DF2291001F002F902214DF223
:101900002A1001F0FDF8F2214DF22B1001F0F8F849
:1019100002214DF22C1001F0F3F8FE214DF22D10B2
:1019200001F0EEF803214DF22E1001F0E9F810213C
:101930004DF22F1001F0E4F803214DF2301001F0C8
:10194000DFF833214DF2311001F0DAF803214DF2C6
:10195000321001F0D5F86D214DF2331001F0D0F8BE
:1019600000214FF4524001F0CBF833214DF2012019
:1019700001F0C6F800214DF2022001F0C1F8342137
:101980004DF2032001F0BCF800214DF2042001F0DB
:10199000B7F83A214DF2052001F0B2F800214DF2DE
:1019A000062001F0ADF84A214DF2072001F0A8F819
:1019B00000214DF2082001F0A3F85C214DF209202E
:1019C00001F09EF800214DF20A2001F099F88121E2
:1019D0004DF20B2001F094F800214DF20C2001F0A3
:1019E0008FF8A6214DF20D2001F08AF800214DF26A
:1019F0000E2001F085F8E5214DF20F2001F080F86E
:101A000001214DF2102001F07BF813214DF211203D
:101A100001F076F801214DF2122001F071F8542105
:101A20004DF2132001F06CF801214DF2142001F069
:101A300067F882214DF2152001F062F801214DF284
:101A4000162001F05DF8CA214DF2172001F058F878
:101A500002214DF2182001F053F800214DF2192017
:101A600001F04EF802214DF21A2001F049F801214F
:101A70004DF21B2001F044F802214DF21C2001F030
:101A80003FF834214DF21D2001F03AF802214DF2C9
:101A90001E2001F035F867214DF21F2001F030F8CB
:101AA00002214DF2202001F02BF884214DF221205B
:101AB00001F026F802214DF2222001F021F8A421A4
:101AC0004DF2232001F01CF802214DF2242001F0F8
:101AD00017F8B7214DF2252001F012F802214DF23E
:101AE000262001F00DF8CF214DF2272001F008F853
:101AF00002214DF2282001F003F8DE214DF22920C9
:101B000000F0FEFF02214DF22A2000F0F9FFF22141
:101B10004DF22B2000F0F4FF02214DF22C2000F0BA
:101B2000EFFFFE214DF22D2000F0EAFF03214DF2E0
:101B30002E2000F0E5FF10214DF22F2000F0E0FFF5
:101B400003214DF2302000F0DBFF33214DF2312034
:101B500000F0D6FF03214DF2322000F0D1FF6D21BD
:101B60004DF2332000F0CCFF00214FF4534000F041
:101B7000C7FF33214DF2013000F0C2FF00214DF2CA
:101B8000023000F0BDFF34214DF2033000F0B8FF09
:101B900000214DF2043000F0B3FF3A214DF2053040
:101BA00000F0AEFF00214DF2063000F0A9FF4A21FF
:101BB0004DF2073000F0A4FF00214DF2083000F094
:101BC0009FFF5C214DF2093000F09AFF00214DF299
:101BD0000A3000F095FF81214DF20B3000F090FFAC
:101BE00000214DF20C3000F08BFFA6214DF20D309C
:101BF00000F086FF00214DF20E3000F081FFE5215C
:101C00004DF20F3000F07CFF01214DF2103000F05A
:101C100077FF13214DF2113000F072FF01214DF2D8
:101C2000123000F06DFF54214DF2133000F068FFC8
:101C300001214DF2143000F063FF82214DF2153086
:101C400000F05EFF01214DF2163000F059FFCA216D
:101C50004DF2173000F054FF02214DF2183000F021
:101C60004FFF00214DF2193000F04AFF02214DF2E2
:101C70001A3000F045FF01214DF21B3000F040FF0B
:101C800002214DF21C3000F03BFF34214DF21D309B
:101C900000F036FF02214DF21E3000F031FF6721C7
:101CA0004DF21F3000F02CFF02214DF2203000F0E9
:101CB00027FF84214DF2213000F022FF02214DF256
:101CC000223000F01DFFA4214DF2233000F018FF58
:101CD00002214DF2243000F013FFB7214DF22530E0
:101CE00000F00EFF02214DF2263000F009FFCF2157
:101CF0004DF2273000F004FF02214DF2283000F0B1
:101D0000FFFEDE214DF2293000F0FAFE02214DF2F5
:101D10002A3000F0F5FEF2214DF22B3000F0F0FEFB
:101D200002214DF22C3000F0EBFEFE214DF22D3061
:101D300000F0E6FE03214DF22E3000F0E1FE10210E
:101D40004DF22F3000F0DCFE03214DF2303000F078
:101D5000D7FE00E096E333214DF2313000F0D0FEA3
:101D600003214DF2323000F0CBFE6D214DF23330C5
:101D700000F0C6FE00214FF4544000F0C1FE3321B4
:101D80004DF2014000F0BCFE00214DF2024000F097
:101D9000B7FE34214DF2034000F0B2FE00214DF2B7
:101DA000044000F0ADFE3A214DF2054000F0A8FEDF
:101DB00000214DF2064000F0A3FE4A214DF20740FB
:101DC00000F09EFE00214DF2084000F099FE5C21DB
:101DD0004DF2094000F094FE00214DF20A4000F05F
:101DE0008FFE81214DF20B4000F08AFE00214DF262
:101DF0000C4000F085FEA6214DF20D4000F080FE63
:101E000000214DF20E4000F07BFEE5214DF20F4027
:101E100000F076FE01214DF2104000F071FE13211A
:101E20004DF2114000F06CFE01214DF2124000F025
:101E300067FE54214DF2134000F062FE01214DF285
:101E4000144000F05DFE00E01DE382214DF21540DC
:101E500000F056FE01214DF2164000F051FECA215D
:101E60004DF2174000F04CFE02214DF2184000F0F8
:101E700047FE00214DF2194000F042FE02214DF2D2
:101E80001A4000F03DFE01214DF21B4000F038FEEB
:101E900002214DF21C4000F033FE34214DF21D4072
:101EA00000F02EFE02214DF21E4000F029FE6721B7
:101EB0004DF21F4000F024FE02214DF2204000F0C0
:101EC0001FFE84214DF2214000F01AFE02214DF246
:101ED000224000F015FEA4214DF2234000F010FE38
:101EE00002214DF2244000F00BFEB7214DF22540B7
:101EF00000F006FE02214DF2264000F001FECF2147
:101F00004DF2274000F0FCFD02214DF2284000F088
:101F1000F7FDDE214DF2294000F0F2FD02214DF2E5
:101F20002A4000F0EDFDF2214DF22B4000F0E8FDDB
:101F300002214DF22C4000F0E3FDFE214DF22D4038
:101F400000F0DEFD03214DF22E4000F0D9FD1021FE
:101F50004DF22F4000F0D4FD03214DF2304000F04F
:101F6000CFFD33214DF2314000F0CAFD03214DF287
:101F7000324000F0C5FD6D214DF2334000F0C0FD50
:101F800000214FF4554000F0BBFD33214DF20150CC
:101F900000F0B6FD00214DF2025000F0B1FD3421F9
:101FA0004DF2035000F0ACFD00214DF2045000F062
:101FB000A7FD3A214DF2055000F0A2FD00214DF29F
:101FC000065000F09DFD4A214DF2075000F098FDAB
:101FD00000214DF2085000F093FD5C214DF20950B4
:101FE00000F08EFD00214DF20A5000F089FD8121A4
:101FF0004DF20B5000F084FD00214DF20C5000F02A
:102000007FFDA6214DF20D5000F07AFD00214DF22A
:102010000E5000F075FDE5214DF20F5000F070FDFF
:1020200001214DF2105000F06BFD13214DF21150C3
:1020300000F066FD01214DF2125000F061FD5421C7
:102040004DF2135000F05CFD01214DF2145000F0F0
:1020500057FD82214DF2155000F052FD01214DF245
:10206000165000F04DFDCA214DF2175000F048FD0A
:1020700002214DF2185000F043FD00214DF219509D
:1020800000F03EFD02214DF21A5000F039FD012111
:102090004DF21B5000F034FD02214DF21C5000F0B7
:1020A0002FFD34214DF21D5000F02AFD02214DF28A
:1020B0001E5000F025FD67214DF21F5000F020FD5D
:1020C00002214DF2205000F01BFD84214DF22150E1
:1020D00000F016FD02214DF2225000F011FDA42166
:1020E0004DF2235000F00CFD02214DF2245000F07F
:1020F00007FDB7214DF2255000F002FD02214DF2FF
:10210000265000F0FDFCCF214DF2275000F0F8FCE6
:1021100002214DF2285000F0F3FCDE214DF229504F
:1021200000F0EEFC02214DF22A5000F0E9FCF22111
:102130004DF22B5000F0E4FC02214DF22C5000F047
:10214000DFFCFE214DF22D5000F0DAFC03214DF2B0
:102150002E5000F0D5FC10214DF22F5000F0D0FC95
:1021600003214DF2305000F0CBFC33214DF23150C1
:1021700000F0C6FC03214DF2325000F0C1FC6D218D
:102180004DF2335000F0BCFC00214FF4564000F0FB
:10219000B7FC33214DF2016000F0B2FC00214DF29A
:1021A000026000F0ADFC34214DF2036000F0A8FCA9
:1021B00000214DF2046000F0A3FC3A214DF20560CD
:1021C00000F09EFC00214DF2066000F099FC4A21CF
:1021D0004DF2076000F094FC00214DF2086000F021
:1021E0008FFC5C214DF2096000F08AFC00214DF269
:1021F0000A6000F085FC81214DF20B6000F080FC4C
:1022000000214DF20C6000F07BFCA6214DF20D6028
:1022100000F076FC00214DF20E6000F071FCE5212B
:102220004DF20F6000F06CFC01214DF2106000F0E7
:1022300067FC13214DF2116000F062FC01214DF2A8
:10224000126000F05DFC54214DF2136000F058FC68
:1022500001214DF2146000F053FC82214DF2156013
:1022600000F04EFC01214DF2166000F049FCCA213D
:102270004DF2176000F044FC02214DF2186000F0AE
:102280003FFC00214DF2196000F03AFC02214DF2B2
:102290001A6000F035FC01214DF21B6000F030FCAB
:1022A00002214DF21C6000F02BFC34214DF21D6028
:1022B00000F026FC02214DF21E6000F021FC672197
:1022C0004DF21F6000F01CFC02214DF2206000F076
:1022D00017FC84214DF2216000F012FC02214DF226
:1022E000226000F00DFCA4214DF2236000F008FCF8
:1022F00002214DF2246000F003FCB7214DF225606D
:1023000000F0FEFB02214DF2266000F0F9FBCF2128
:102310004DF2276000F0F4FB02214DF2286000F03E
:10232000EFFBDE214DF2296000F0EAFB02214DF2C5
:102330002A6000F0E5FBF2214DF22B6000F0E0FB9B
:1023400002214DF22C6000F0DBFBFE214DF22D60EE
:1023500000F0D6FB03214DF22E6000F0D1FB1021DE
:102360004DF22F6000F0CCFB03214DF2306000F005
:10237000C7FB33214DF2316000F0C2FB03214DF267
:10238000326000F0BDFB6D214DF2336000F0B8FB10
:102390005521184600F0B4FBAA21204600F0B0FBFE
:1023A0005221384600F0ACFB0821484600F0A8FB5B
:1023B0000021504600F0A4FBCC214FF4314000F046
:1023C0009FFB00214BF2011000F09AFB05215846BB
:1023D00000F096FB70214FF4374000F091FB702124
:1023E0004BF2017000F08CFB01214FF4384000F0FB
:1023F00087FB03214BF6010000F082FB03214BF623
:10240000020000F07DFB03214BF6030000F078FB97
:1024100002214FF43C4000F073FB00214BF60140D9
:1024200000F06EFB00214BF6024000F069FBD0216A
:102430004FF4494000F064FB02214CF6011000F01B
:102440005FFB50214CF6021000F05AFB50214CF675
:10245000031000F055FB50214CF6041000F050FB27
:1024600000214FF4545000F04BFB55214FF46850BD
:1024700000F046FB4FF488502880782002F010FCD2
:102480004FF4245028800020FEF74CFD0449C1F889
:1024900080813046FEF710FD1FB0BDE8F08F0000D0
:1024A000008021420246012000E05043491EC9B28B
:1024B000FBD27047034808B50088ADF80000BDF8AE
:1024C000000008BD0008006C044910B50880052014
:1024D00002F0E6FBBDE81040FFF7ECBFFE07006C22
:1024E000F0B5674C00232146A679898846F6040298
:1024F00041F66315012E01D02EB11DE091421BD093
:10250000A94202D118E0A94216D1082814D2DFE866
:1025100000F00406080A0C0E101206200CE007203A
:102520000AE0042008E0052006E0012004E0002085
:1025300002E0032000E00220A1F5134C45F2103721
:1025400045F21056BCF1410C07D0914205D0B9427A
:1025500003D0B14201D0A94275D1082812D2DFE8D8
:1025600000F0110406080A0C0E1080230AE0402334
:1025700008E0C02306E0202304E0602302E0A0235B
:1025800000E0E023B14202D14FF4585000E0362081
:10259000B94205D0B14203D0A94201D043F00803AB
:1025A000914201D143F00203194600F0A9FAA08834
:1025B000A8420AD099062188628802D5914202D3A6
:1025C00003E0914201D9228061802E498A1CB042E9
:1025D0006089088021D100231380431C0B800023D5
:1025E0001380831C0B8023885B1E1D0A1580C01C72
:1025F0000880D8B21080A089088000231380431C73
:102600000B8000231380831C0B8063885B1E1C0AD5
:102610001480C01C0880D8B212E000201080108006
:102620002088401E030A1380C0B21080A089088051
:102630000020108010806088401E010A1180C0B206
:102640001080F0BDFFE7082812D2DFE800F0040692
:1026500008110A0C0E1030230AE0102308E0202392
:1026600006E0382304E0282302E0182300E00823D2
:10267000BDE8F040032043F4805100F041BA00006F
:1026800010710020FE07006C2DE9F04F4C4E0C46F7
:1026900001464FEA102C3046B588DFF828B1828910
:1026A000230A4089A5F513470BF1020A413F1CD0CC
:1026B000A5F5A647103F18D0B64696F8069036887E
:1026C000A5F5D047A6EB0108A8F10108043F13D0F7
:1026D000A5F5C857633F23D0A5F5AA477646103F16
:1026E0004ED0B9F1010F60D061E05D46ABF800005B
:1026F0005046AAF800C00BE0B9F1010F01D11FFA52
:1027000088F15D46ABF800000E0A5046AAF800605A
:10271000C9B201802A800380E1B20180BDE8F08F58
:10272000B9F1000F1DD0ABF800005046AAF800C068
:10273000C9B2AAF80010761E310AAAF80010F1B248
:102740000180ABF800205046AAF80030E1B2AAF8A8
:102750000010BEF80210491E0A0AAAF80020C9B2E9
:10276000DBE71FFA88F1ABF8000000265046AAF814
:102770000060AAF800600E0AAAF80060C9B2DFE79C
:10278000ABF80000AAF800C0401CABF80000C8B2CB
:10279000AAF80000ABF80020AAF80030521CABF8F1
:1027A0000020E0B2AAF80000B8E71FFA88F100F0B4
:1027B000A7F9B0892146BDE8F04F00F0A1B90000AB
:1027C00010710020FE07006C2DE9FC4F0546914674
:1027D0004844401E84B2C818401E009082B205EBE7
:1027E0000900DFF860C1401EC0F3072E0E464FEA15
:1027F000112800986146BCF80430C0F3072B888983
:102800004989A3F513474FEA152A413F10D0A3F594
:10281000A647103F0CD0A3F5D047043F08D09CF842
:10282000067041F6631C0197012F15D1634513D142
:10283000454B1980991CA1F800A0EDB20D80A1F8BC
:1028400000E0E4B20C801880A1F80080F0B20880AB
:10285000A1F800B0D0B21EE03A4F63453F881DD1C9
:10286000394CA7EB0902009B521B92B29BB221800C
:10287000150AA11C0D80D5B20D804A44521E150ABE
:102880000D80D2B20A802080A1F80080F0B20880CA
:10289000180A0880D8B20880BDE8FC8FA3F5A04CC8
:1028A000BCF5A26C21D00198012841D023462946CD
:1028B0003446174650204FF0510A4FF052094FF05E
:1028C000530800F01DF91946504600F019F9214649
:1028D000484600F015F93946404600F011F93146F6
:1028E0002846BDE8FC4FFFF7CFBE174B19809F1C51
:1028F000A7F800A001F1010CA3F800C0EDB23D80E3
:102900008D1C1D80A7F800E0C91C1980E1B2398038
:102910001880A7F80080411C1980F1B23980811C11
:102920001980A7F800B0C01C1880D0B23880B3E777
:10293000381B401E84B2781B401E3146134687B2B6
:10294000B8E7000010710020FE07006C2DE9FF4F72
:102950001D460C468A46580700D0012000EBD500E2
:1029600069084843203A00F0FF09D0B20026DFF89A
:102970009CB0029045E00C2D12D0102D15D0182DD2
:1029800041D10298224900EBC00000BF01EB80005A
:102990004FF00008875D38060CD51E4802880DE010
:1029A00002981D4900EB4000F0E71C49029801EB3A
:1029B0000010EDE70D9828B9164842882146009886
:1029C000FEF74AFB7806070E641CBBF80200A4B2AF
:1029D000A04218D9A4EB0A00A84209D10098544695
:1029E000401C80B20090BBF8001081420BD906E079
:1029F00008F1010000F0FF08B8F1080FCBD3761CF6
:102A0000F6B24E45B7D3BDE8FF8F0000107100202D
:102A1000205F000848000020BC540008305900081E
:102A20002DE9FF4F81B00026DDF838A01D46934602
:102A300081463446B0464FEA5A0727E0281B401E1D
:102A4000C1B20A20FFF72EFDBBFBF0F00A21B0FB5C
:102A5000F1F201FB120026B9691E8C4201DA48B17D
:102A600001263030C2B207FB049080B25346CDF845
:102A7000008006E007FB049080B253462022CDF888
:102A800000800299FFF762FF641CE4B2AC42D5D328
:102A900005B0BDE8F08F2DE9F84F044600F0FF09BE
:102AA00010190D46DDE90AB61FFA80F8581987B2E9
:102AB0004FF0000A12E0444503D305EB0B004C46EF
:102AC00085B2BD420FD25B4629462046CDF800A014
:102AD000FFF73CFF04EB5B0084B2761C3278A2F176
:102AE00020005E28E7D9BDE8F88F000002480349BE
:102AF000008908807047000010710020FE07006CFC
:102B0000024A1080901C018070470000FE07006C94
:102B100038B50121482000F083FB2024ADF80040A7
:102B200010208DF8030003200B4D8DF8020069463C
:102B30002846FEF70FF820212846FEF789F8ADF861
:102B40000040064C69462046FEF704F82021204646
:102B5000FEF77EF838BD0000000C0140001801406F
:102B6000FEE7704770B50F23C47801780122F4B1F5
:102B7000144C2468457804F4E064C4F5E064240A45
:102B8000C4F10406E3408478B5401C402C4301F1B5
:102B9000E021230181F80034007800F01F018A4011
:102BA0004009800000F1E020C0F8002170BD01F074
:102BB0001F0082404809800000F1E020C0F8802119
:102BC00070BD00000CED00E00249084302490860B6
:102BD000704700000000FA050CED00E010B5001D84
:102BE000092815D2DFE800F01F1D12100E0C0A078D
:102BF0000500482100E03821062409E02821FBE7F0
:102C00001821F9E70821F7E7082100E018210E2430
:102C10009B2000F023FD2146BDE81040AB2000F0D2
:102C20001DBD2821F3E73821F1E710B5011D082962
:102C30000BD804014034E1B2A72000F00FFDE1B24F
:102C4000BDE81040A82000F009BD10BD011D0829F5
:102C500006D8202101EB8000C1B29C2000F0FEBC10
:102C600070470000F8B50024012140F23D1000F04B
:102C7000D7FA4FF48075ADF8005048268DF8036000
:102C80000320434F8DF8020069463846FDF762FF86
:102C900029463846FDF7DCFF1820ADF800003D4F0F
:102CA00010258DF8035069463846FDF753FF18216B
:102CB0003846FDF7CDFFFF20ADF800008DF803602A
:102CC00069463548FDF746FF4020ADF80000334E19
:102CD0008DF8035069463046FDF73CFF40213046F1
:102CE000FDF7B6FF4FF44046ADF800608DF8035095
:102CF0002B4D69462846FDF72DFF31462846FDF746
:102D0000A7FF01212748FDF777FF00F071FB802125
:102D1000122000F0A3FC08B10120F8BD322001F020
:102D2000A5FF1C2000F0F6FB4FF6FF7505EA002614
:102D30001D2000F0EFFB3043A0F5FE41A23904D086
:102D4000014619A001F07EF9E6E70A2000F0E2FB57
:102D500005EA00250B2000F0DDFB2843A0F5EE413D
:102D6000213905D0014613A001F06CF90220F8BD0D
:102D7000134D00BF05EB4400417815F8140000F036
:102D80006DFC641CA4B2412CF4D30020F8BD0000FB
:102D900000080140000C01400010014000140140F7
:102DA00000200140000230004D49443A25640D0ADC
:102DB000000000004849443A25640D0A0000000064
:102DC0007C6C000810B5062847D2DFE800F0030647
:102DD0001D27313CFF21132009E0FD21132000F0C5
:102DE0003DFC5A21012000F039FC5C2129E000F073
:102DF00035FC65210E2000F031FC00212D2000F073
:102E00002DFC00212E2024E0FD21132000F026FCC3
:102E10005821012000F022FC602112E0FD21132046
:102E200000F01CFC8421012000F018FC4C2108E07B
:102E3000FD21132000F012FC9621012000F00EFC71
:102E400040210220D3E7FF21132000F007FCE521F9
:102E50000E20BDE8104000F001BC10BD10B50728E1
:102E600040D2DFE800F0040609131D2731000621D7
:102E700003E04621A62031E02621A62000F0EEFB4B
:102E80008021602000F0EAFB802126E01E21A620A0
:102E900000F0E4FB8021602000F0E0FBC0211CE09A
:102EA0001E21A62000F0DAFB6021084600F0D6FBC8
:102EB000602112E01E21A62000F0D0FBA02160209E
:102EC00000F0CCFB402108E01E21A62000F0C6FB4C
:102ED0004021602000F0C2FBA0216120BDE810402D
:102EE00000F0BCBB10BD2DE9F0470C4605464AB3C7
:102EF000C5F5207000EBD070C0F34F07C4F5F0703B
:102F000000EBD070C0F34F060621122000F0A6FBA4
:102F10002321172000F0A2FBA021182000F09EFB27
:102F20000721192000F09AFBF0211A2000F096FBEF
:102F30000021322000F092FBA021292000F08EFB1E
:102F4000F02128E0C5F5A07000EBD070C0F34F076A
:102F5000C4F1F00000EBD070C0F34F064621122000
:102F600000F07CFB3F21172000F078FB5021182057
:102F700000F074FB0321192000F070FB78211A2067
:102F800000F06CFB0021322000F068FB502129206A
:102F900000F064FB78212C2000F060FB172000F08B
:102FA000B9FA00EB9700C1B2172000F057FBC5F348
:102FB00087018A46182000F051FB192000F0AAFA78
:102FC00000EB5600C1B2192000F048FBC4F34701E2
:102FD00089461A2000F042FB322000F09BFA80461E
:102FE000F007400E07F0030140EA011004F001046D
:102FF00040EA840105F00305294341EA0801322033
:1030000000F02CFB5146292000F028FB49462C20DB
:1030100000F024FB2A2000F07DFA45EA080545EA85
:103020008401BDE8F0472A2000F018BB2DE9F05FCD
:103030005F480078002876D00420FFF751FA5D4CF5
:1030400078231A46208861887838783901EBD17165
:1030500000EBD070C1F34F01C0F34F00FFF7B4FB9A
:10306000A088A0F5C85163390FD1208861887838CD
:10307000783901EBD17100EBD0707823C1F34F01A7
:10308000C0F34F001A46FFF79FFBFFF72FFD4A4B97
:103090000020C3F8B801494A10211160101F0160D7
:1030A00011600124C3F8B8410160DFF814A1DFF812
:1030B00014B1454C002381464FF6FF7CC3EB03154A
:1030C00000204FEA05181160DAF80850C9F800101E
:1030D0000CEA05251160DAF80860C9F80010F6B2AC
:1030E0002E43ABF8006008EB4005370A67552544CE
:1030F000401C6E707828E6D35B1C782BDED3334DF2
:103100000121284600F098FF02E0642001F0C8FD8C
:103110004021284600F0F8FE0128F6D1FE2128467D
:1031200000F08AFF03E040E0642001F0B9FD402197
:10313000284600F0E9FE0128F6D100264FF4E147C9
:10314000A15D284600F078FF4021284600F0DCFE13
:103150000028F9D0761CBE42F2D3FE21284600F0AA
:103160006BFF02E0642001F09BFD4021284600F047
:10317000CBFE0128F6D10121284600F05DFF02E0D8
:10318000642001F08DFD4021284600F0BDFE01289D
:10319000F6D10749002008700D480178491C0170DC
:1031A000BDE8F05F0020FFF79BB9BDE8F09F00008D
:1031B0004C0000201071002000002442140C01403B
:1031C000001001400008006C900000200038014011
:1031D0004D00002070470000044A0029516901D0C9
:1031E000014300E08143516170470000001002403C
:1031F000044A0029D16901D0014300E08143D16133
:103200007047000000100240044A0029116901D0F3
:10321000014300E08143116170470000001002404B
:10322000044A0029916901D0014300E08143916182
:103230007047000000100240044A0029D16801D004
:10324000014300E08143D16070470000001002405C
:1032500030B51F494A6812F00C031E4A03D0042BF4
:1032600001D0082B21D002604A680F231A4C03EAD0
:103270001212A35C0268DA4042604B68072505EA37
:103280001323E35C22FA03F383604B6805EAD3233C
:10329000E35CDA40C2604968032303EA9131231FEB
:1032A000595CB2FBF1F1016130BD4A684B6802F430
:1032B00070124FF0020413F4803F04EB924202D0EC
:1032C0004B689B0301D5054B00E0024B5A43CAE70C
:1032D0000010024000127A008000002000093D002A
:1032E000F0B589B001210820FFF79AFF01210420E1
:1032F000FFF77EFF4FF40074ADF81C4028208DF8D6
:103300001F00224E03258DF81E5007A93046FDF7F9
:1033100021FC21463046FDF79BFC42F21070ADF8CF
:1033200010004720ADF80C000024194FADF81240F2
:10333000ADF80E4003A9384600F0EEFC0C20ADF8C5
:1033400000000126ADF80460ADF80240ADF806407B
:10335000ADF808506946384600F004FC01213846B3
:1033600000F0E7FB1E208DF818008DF819608DF82D
:103370001A508DF81B6006A8FFF7F4FB01221121FB
:10338000384600F085FC09B0F0BD0000000C01409B
:103390000008004030B50E4A00201478610616D5AA
:1033A00051686FEA11450B0EEDB29D420AD14BB93F
:1033B000C1F30723C943C9B2994203D1180001D010
:1033C000210604D424F0400111700021517030BD59
:1033D0006800002010B54FF47A7402E0204601F036
:1033E00045FCF920FDF736FC0028F7D110BD0000A0
:1033F00038B501214FF49070FFF712FF4FF40055DC
:10340000ADF8005048208DF803000320114C8DF8D2
:10341000020069462046FDF79DFB29462046FDF740
:1034200017FC0820ADF8000010200B4D8DF80300AC
:1034300069462846FDF78EFB08212846FDF708FC63
:10344000606820F470006060606840F44010606064
:1034500038BD0000002001400014014070B532204A
:1034600001F01EFC0C4C0120C4F8B4010B4DC5F852
:103470008C01322004F5DA7405F5C67501F010FCF4
:1034800000262E60322001F00BFC2660BDE8704063
:10349000322001F005BC00000000244200802242DE
:1034A0002DE9F047184C0025606820F4700060603A
:1034B000606840F400006060DFF85090144F082608
:1034C0004FF00108AA46322001F0EAFBC7F88C81D0
:1034D0006806050ED9F8340108B16D1CEDB2322032
:1034E00001F0DEFBC7F88CA1761E16F0FF06EAD1CC
:1034F000606820F470006060606840F440106060B4
:103500002846BDE8F087000000200140000024426A
:103510000080224210B5044600F022F8422000F05C
:1035200055F8642001F0BCFB204600F04FF8642001
:1035300001F0B6FB00F02EF8642001F0B1FB00F0C2
:103540000FF8432000F042F8642001F0A9FBFFF7D8
:10355000A7FF0446FFF782FF00F01CF8204610BDCD
:1035600070B50A4C0120C4F8B401094DC5F88C01AE
:10357000322004F5DA7405F5C67501F091FB0026DA
:103580002660322001F08CFB2E6070BD00002442CA
:103590000080224270B50B4C0020C4F8B4013220E8
:1035A00004F5DA7401F07CFB07480125C0F88C5162
:1035B000322001F075FB2560BDE87040322001F03B
:1035C0006FBB000000002442008022422DE9F0473A
:1035D0000025DFF87C901F4C07462E464FF001086F
:1035E000380602D5C9F8B48101E0C9F8B46178069B
:1035F000070E322001F054FBC4F88C81322001F018
:103600004FFBC4F88C616D1CEDB2082DE8D3124D50
:10361000686820F470006860686840F400006860C2
:10362000322001F03DFBC4F88C81322001F038FBE0
:10363000D9F8340100B10120C4F88C61696821F423
:1036400070016960696841F440116960BDE8F08704
:1036500000002442008022420020014070B50D4647
:1036600006460024FFF77CFF4220FFF7AFFF00B1C2
:103670000124642001F014FB3046FFF7A7FF00B1DE
:103680000124642001F00CFB2846FFF79FFF00B1E6
:103690000124FFF77FFF204670BD000070B50B4C82
:1036A00005460221204600F013F80028F9D02946EB
:1036B000204600F016F80121204600F009F8002805
:1036C000F9D02046BDE8704000F009B80030014054
:1036D0000246002012890A4200D0012070478089EA
:1036E00070478181704770470CB5002126480191D1
:1036F0000091026842F4803202604FF4A0630268D5
:1037000002F400320092019A521C0192009A12B9FE
:10371000019A9A42F3D10268920333D501210091B4
:103720001A490A6842F010020A600A6822F003028D
:103730000A600A6842F002020A604168416041681A
:103740004160416841F480614160416821F47C112D
:103750004160416841F4E8114160016841F08071C5
:10376000016001688901FCD5416821F003014160D5
:10377000416841F0020141604168C1F381010229C1
:10378000FAD10CBD00910CBD001002400020024097
:1037900009490020C1F88001C1F88401C1F8B001D5
:1037A000C1F8B401C1F8B801C1F8AC010349C1F8CE
:1037B0009401C1F898017047000021420080234223
:1037C0004FF0E0210428086903D020F004000861CC
:1037D000704740F00400FAE7704700000F4810B54A
:1037E000016841F00101016041680D4A11404160EA
:1037F00001680C4A11400160016821F480210160D8
:10380000416821F4FE0141604FF41F018160FFF720
:103810006BFF05494FF00060086010BD00100240CA
:103820000000FFF8FFFFF6FE08ED00E070B5048C25
:1038300024F001040484058B048C4FF6FF7606EA1D
:103840000313134325F0F3050E4A2B4390420ED089
:103850000D4A90420BD0B0F1804F08D00B4A9042F5
:1038600005D00B4A904202D00A4A904202D124F07D
:10387000020201E024F00A020A4342F0010103833C
:10388000018470BD002C0140003401400004004060
:1038900000080040000C0040F0B5048C24F0100437
:1038A0000484078B048C4FF6FF7527F4734705EAF1
:1038B00003333B4305EA02221A43114B05EA011682
:1038C00098420ED00F4B98420BD0B0F1804F08D0E9
:1038D0000D4B984205D00D4B984202D00C4B9842AC
:1038E00005D124F02001314341F0100104E024F01F
:1038F000A0030B4343F0100102830184F0BD0000DC
:10390000002C014000340140000400400008004049
:10391000000C004070B53A4D0121284600F016F920
:10392000384CA0B12078010611D520F0100020708D
:10393000010702D140F040002070C0B200F00F013A
:103940000E2901D2401C01E000F07000207010210F
:10395000284600F0FBF890B32B48D0F8240158B16A
:103960000221284600F09CF90021284600F0A9F920
:10397000207840F010003BE0284600F0E4F860803A
:103980000021284600F08CF92178C8062DD50806BC
:1039900060884FF4F9731ED5A0F22D129A4202D816
:1039A0006068400009E0A0F279524FF4C7739A4270
:1039B00006D86068400040F00100606015E018E043
:1039C000A0F69900984210D86078401C607001F011
:1039D000F000207009E0A0F580506938984204D8C2
:1039E00041F08000207000206070207820F01000EE
:1039F00020702846BDE87040112100F097B8000003
:103A000000080040680000200080214210B5074CEB
:103A10000121204600F09AF810B1054900200870F5
:103A20002046BDE81040012100F080B800100040A1
:103A30004D0000207FB50C46054601211020FFF700
:103A4000D7FBADF800400020ADF80450104CADF8A5
:103A50000600ADF802006946204600F05DF901223B
:103A60004121204600F014F90121204600F061F8C0
:103A700036208DF80C0001208DF80D0003218DF803
:103A80000E108DF80F0003A8FFF76CF87FBD000043
:103A90000010004010B50B4C0121204600F056F8F4
:103AA00000280ED00848018841F40041018001211E
:103AB000204600F03BF82046BDE81040002100F011
:103AC00038B810BD00140040700000207FB50C46CF
:103AD000054601212020FFF78BFBADF80450ADF81F
:103AE00000400024104DADF80640ADF80240694694
:103AF000284600F011F901221146284600F0C8F8C6
:103B00000121284600F015F837208DF80C008DF8BB
:103B10000D4002208DF80E0001208DF80F0003A843
:103B2000FFF720F87FBD000000140040C943018268
:103B300070470029018802D041F0010101E021F025
:103B4000010101807047B0F8400070470246002034
:103B5000138A92890B4202EA010202D0002A00D0A5
:103B6000012070472DE9F05F0D4604460888434F59
:103B7000DFF80CC1DFF80C814988AA882B894FF047
:103B8000804960B3042833D04FF6FF7E082838D030
:103B9000208C9B4620F480502084A38B268C70467A
:103BA00000EA022223F473431A4300EA0B30104365
:103BB0000EEA013EBC420BD0644509D04C4507D00B
:103BC000444505D0304A944202D0304B9C4248D103
:103BD00026F4005141EA0E0141F4805146E02046AE
:103BE000FFF724FEE9882046BDE8F05F00F06BB8DF
:103BF0002046FFF751FEE9882046BDE8F05F00F05F
:103C00006AB8208C20F480702084B4F81CA0208C2A
:103C10000EEA031313432AF0F30A0EEA012B43EAD8
:103C20000A03BC420BD0644509D04C4507D044453B
:103C300005D0154A944202D0144A944204D120F48B
:103C4000007040EA0B0002E020F42060084340F4DA
:103C50008070A3832084E9882046BDE8F05F00F0EF
:103C600046B826F402420A4342F48051A08320461B
:103C70002184E988BDE8F05F00F041B8002C0140E4
:103C8000003401400004004000080040000C0040E7
:103C9000002A828901D00A4300E08A43828170476A
:103CA000028C4FF6FF7322F4005203EA01311143F4
:103CB000018470478186704701877047A0F84010E3
:103CC000704781847047028B22F00C020283028BC2
:103CD0000A4302837047028B22F440620283028B04
:103CE0004FF6FF7303EA01210A4302837047828B78
:103CF00022F00C028283828B0A4382837047828B7C
:103D000022F440628283828B4FF6FF7303EA012123
:103D10000A4382837047000030B502881B4B1C4C5D
:103D200098420DD0A0420BD0B0F1804F08D0194D71
:103D3000A84205D0184DA84202D0184DA84203D180
:103D400022F070054A882A43154DA84206D0154D29
:103D5000A84203D022F44075CA882A4302808A8888
:103D600082850A88028598420AD0A04208D00E4A6D
:103D7000904205D00D4A904202D00D4A904201D1A6
:103D8000097A01860121818230BD0000002C0140AA
:103D9000003401400004004000080040000C0040D6
:103DA0000010004000140040004001400044014069
:103DB0000048014070B5154C40F22551204600F0F6
:103DC000AAF800280ED0204600F032F9C2B21048FE
:103DD00001880B0406D44C044FF0000306D50A2AD0
:103DE00001D0038070BD41F400410DE00D2A09D0DF
:103DF000C1F30D04074D491C89B22A550180C7291A
:103E0000EFD870BD41F48041018070BD00380140A1
:103E100076000020CE75002070B5154C40F225517B
:103E2000204600F078F800281CD0204600F000F969
:103E3000104CC5B22088000414D42088B0F5167F39
:103E400011D20D4E00213046FFF73BFF208818B9F4
:103E500001213046FFF76DFE208808490144401CCF
:103E600020800D7070BD208840F40040208070BD1F
:103E70000048004070000020001400401E71002027
:103E80000029818902D041F4005101E021F4005160
:103E900081817047174910B588420AD101218C03EE
:103EA0002046FFF7C9F92046BDE810400021FFF782
:103EB000C3B91149884202D101214C0410E00F49D5
:103EC000884202D101218C040AE00D49884202D1C6
:103ED0000121CC0404E00B4988420AD101210C05E0
:103EE0002046FFF791F92046BDE810400021FFF77A
:103EF0008BB910BD0038014000440040004800402C
:103F0000004C0040005000400246002012880A4247
:103F100000D00120704730B501F01F0201240025B8
:103F2000C1F3421304FA02F2012B0FD0022B0FD07F
:103F3000838A4FEA11210088134204FA01F400EA4F
:103F4000040001D000B10125284630BD8389F0E787
:103F5000038AEEE710B5C1F3421301F01F040121FB
:103F6000A140012B07D0022B07D01430002A026891
:103F700005D00A4304E00C30F8E71030F6E78A4336
:103F8000026010BD30B50446008A85B00D464CF67F
:103F9000FF710840E98801432182A1894EF6F310A0
:103FA0000140A8882A8910436A890A431043A081E6
:103FB000A08A4FF6FF410840A9890143A1826846C3
:103FC000FFF746F91948844201D1039800E00298AE
:103FD000A189090400EBC00101EB0010296801D59B
:103FE000490000E08900B0FBF1F06422B0FBF2F17F
:103FF00009010B096FF018056B4300EB8300A389DF
:104000001D044FF0320306D503EBC000B0FBF2F005
:1040100000F0070005E003EB0010B0FBF2F000F049
:104020000F000843208105B030BD0000003801407A
:104030008088C0F308007047C1F308018180704791
:10404000FEE700000FB4054B10B503A9044A02981F
:1040500000F000F910BC5DF814FB0000D54C00081E
:10406000780000200FB4084B10B504A902AA0398E9
:1040700000F0F0F8044602A9002000F0CEFD204632
:1040800010BC5DF814FB00001B4C000837B514464B
:104090000846064B6A46214600F03CFA044669464B
:1040A000002000F0BFFD20463EBD0000254C00086A
:1040B00002E008C8121F08C1002AFAD170477047F1
:1040C000002001E001C1121F002AFBD1704700004F
:1040D0002DE9FF5F82B00021DDE90430020DDDF83B
:1040E00040B0034318D044F61050A2F2FF324243CE
:1040F0001514119801281FD0A5EB0B00401C5FEA96
:10410000000A4FF000064E4FDFF83891B046504697
:1041100015D5CAF1000413E0119801244AA301281F
:1041200001D16FEA0B010298119AC0E90031C0E990
:10413000024206B0BDE8F09FCBF10000DFE7044685
:104140000021404A491842EB0450CDE9001012E02A
:10415000E00707D032463B4640464946FCF709F99E
:104160008046894632463B4610461946FCF701F91F
:1041700006460F466410002CEAD1DDE90401DDE9B2
:104180000023BAF1000F06DAFCF7F3F842464B467B
:10419000FCF7EFF805E0FCF75EF942464B46FCF70A
:1041A0005AF904460E460022284BFCF7DBF903D8E7
:1041B0004FF0FF30014607E00022254B20463146F4
:1041C000FCF730F8FCF7B6F9102409E0002C0ADB04
:1041D0000A220023FBF7F5FF039B30321A55641EB9
:1041E00050EA0102F2D1641C039AC4F11103144491
:1041F000119A012A03D0012208430DD10AE0084395
:1042000004D000204FF0110B119072E7A3EB0B05C7
:104210006D1E0DE05B4504DD4FF0000205F1010568
:1042200004E003DA4FF00002A5F10105002AECD00A
:1042300002981199C0E90231C0E9004579E7000010
:10424000000014400000F03F300000000000F04388
:104250000000E03F2DE9FF4F8DB09B460F4604461E
:10426000002606E025280BD05A460F999047641C7B
:10427000761C20780028F5D111B03046BDE8F08FCB
:104280000025A8460122984900E0054314F8013FA3
:10429000203B02FA03F00842F7D120782E2817D1EC
:1042A00014F8010F45F004052A280ED06FF02F02F4
:1042B0002078A0F1300109290AD808EB880102EB27
:1042C000410100EB0108641CF2E757F8048B641C01
:1042D00020786C280DD004DC4C2812D06A2811D12B
:1042E00004E074280DD07A280CD10AE045F40015BA
:1042F00007E0617845F48015814202D1641C05F520
:104300008015641C2078692844D008DC0028B3D0CC
:10431000582867D063280FD0642808D13AE0702865
:1043200065D0732812D075285AD078285AD05A46AA
:104330000F999047761CD5E017F8040B8DF8000014
:1043400000208DF80100E946012003E057F8049BA6
:104350004FF0FF3069074FF0000501D40AE06D1CF3
:1043600045450DDA8542FADB19F805100029F6D12A
:1043700006E06D1C8542FCDB19F805100029F8D118
:104380002E4404E019F8010B5A460F9990476D1E10
:10439000F8D2A7E00A200021CDE90801C5F30250B8
:1043A00002280CD001CFC117021E71F100020CDAF5
:1043B0000023D0EB030063EB01012D2208E0FF1D79
:1043C00027F00707F7E80201EEE72A0504D52B22BC
:1043D0008DF8282001223CE0EA073AD02022F7E7B6
:1043E0000A2000E010200021CDE9080107E010209C
:1043F000002145F00405CDE908014FF00808C5F398
:104400000250022810D001CF00214FF0000A2A07E5
:1044100020D52278702A0DD0DDE908C38CF0100C6D
:104420005CEA030C0CD015E0FF1D27F00707F7E846
:104430000201EAE740228DF828204FF0010A0CE043
:1044400050EA010306D030238DF828308DF829205A
:10445000022292462278582A04D024A20DF1200983
:104460000B9209E026A2F9E7DDE90823FBF7A9FE94
:104470000B9B9B5C09F8013D50EA0102F4D1ADEBC6
:10448000090020300890680701D44FF0010808990E
:10449000884503DD0898A8EB000000E00020804676
:1044A000002506E00AA85A46405D0F9990476D1C0A
:1044B000761C5545F6DB04E030205A460F999047AC
:1044C000761CB8F10001A8F10108F5DC05E019F847
:1044D000010B5A460F999047761C0899481E089080
:1044E0000029F4DC641CC4E60928010030313233B1
:1044F0003435363738396162636465660000000020
:104500003031323334353637383941424344454609
:10451000000000002DE9FF4F95B09A4688460646F8
:104520000025EEE1252877D100242746F94A01210C
:10453000039400E0044316F8013F203B01FA03F026
:104540001042F7D130782A2811D06FF02F0330783D
:10455000A0F13002092A16D8039A44F0020402EBB3
:10456000820203EB42021044761C0390EFE758F8F6
:10457000042B0392002A03DA504244F400540390BF
:1045800044F00204761C30782E2816D116F8010F5C
:1045900044F004042A280DD06FF02F023078A0F1E7
:1045A0003003092B09D807EB870302EB4303C71835
:1045B000761CF3E758F8047B761C30786C280FD013
:1045C00006DC4C2817D068280DD06A2814D104E0E6
:1045D000742810D07A280FD10DE044F400140AE0BA
:1045E00044F4801401E044F440147278824202D111
:1045F00004F58014761C761C307866280BD013DC0A
:10460000582877D009DC002875D04528F6D04628F0
:10461000F4D047281AD193E118E0632835D06428F4
:1046200079D0652812D18BE1702873D008DC672817
:10463000F1D069286FD06E280DD06F2806D1ACE07C
:1046400073282CD0752874D0782853D052461799E7
:1046500090476D1C54E1C4F30250022809D003288E
:104660000DD0D8F8001004280DD00D6008F1040812
:1046700046E1D8F80010EA17C1E90052F6E7D8F889
:1046800000100D80F2E70D70F0E718F8041B8DF8AC
:10469000001000208DF80100EB46012003E058F8DF
:1046A00004BB4FF0FF3061074FF0000102D40DE072
:1046B00009F101018946B9420FDA8145F8DB1BF89F
:1046C00009100029F4D108E009F10101894681426D
:1046D000FADB1BF809100029F6D103985346A0EB2A
:1046E000090721463846179A00F080FA284400EB63
:1046F000090507E044E008E10DE01BF8010B524614
:1047000017999047B9F10109F7D253462146384627
:10471000179AF2E039E00A21C4F302524FF0000B7D
:104720000091022A06D058F8040BC117032A09D0B9
:104730000AE023E008F1070020F00702F2E8020196
:10474000904605E000B2C117042A01D140B2C1175A
:10475000002906DA0A460021404261EB02012D22BF
:1047600002E0220504D52B228DF80420012203E06B
:10477000E20701D02022F7E7914657E00A2100E046
:1047800010214FF0000B00910BE010214FF0000BB7
:1047900044F004040827009103E008204FF0000BC8
:1047A0000090C4F30252022A05D058F8040B0021ED
:1047B000032A08D008E008F1070020F00702F2E819
:1047C0000201904603E080B2042A00D1C0B24FF04B
:1047D000000922072AD53278702A07D0DDF800C0F8
:1047E0008CF0100C5CEA0B0C05D00EE040228DF82A
:1047F0000420012208E050EA010306D030238DF89E
:1048000004308DF8052002229146009B83F00803B6
:1048100053EA0B030AD150EA010201D1620705D520
:1048200030228DF804204FF001097F1E3278582A7B
:1048300004D039A20C920CAA02920BE03BA2F9E739
:104840005B46009AFBF7BDFC0C9B9B5C029A521ED8
:104850000292137050EA0102F2D1029804A9081AD8
:1048600000F1200B600702D524F4803400E001271A
:104870005F4502DDA7EB0B0000E0002000EB0B0121
:10488000009003984944401A0390E00306D453462D
:104890002146179A039800F0A9F90544002706E07D
:1048A00001A85246C05D179990476D1C7F1C4F456B
:1048B000F6DBE0030CD553462146179A039800F027
:1048C00095F9054404E030205246179990476D1C35
:1048D0000099481E00900029F5DC08E00298029932
:1048E00052460078491C0291179990476D1CBBF104
:1048F0000001ABF1010BF1DC5BE100F065F905446F
:10490000761C307800287FF40DAE19B02846BDE83B
:10491000F08F00000928010030313233343536374A
:1049200038396162636465660000000030313233FB
:10493000343536373839414243444546000000009B
:10494000600700D4062708F1070020F00700F0E810
:104950000223804603F0004C5FEA0C0001D097A0D0
:1049600009E0200501D596A005E0E00701D095A05B
:1049700001E0AFF24C001390307823F0004365283B
:104980000CD006DC452809D046281DD047287FD109
:104990003BE0662818D067287AD136E00021112F35
:1049A00001DB112000E0781CCDE9000104A90CA86E
:1049B000FFF78EFBDDE90D010C9A4FF0000B07F1BC
:1049C0000109109200914EE04FF000400097CDE9B0
:1049D000011004A90CA8FFF77BFBDDE90D020C9B7D
:1049E0000F994FF0000B91461093009211B9791C6A
:1049F00000EB0109B7EB090003D4C0F1FF3B07F15D
:104A00000109A9EB0700019042E0012F00DA01271C
:104A10000021112F01DD112000E03846CDE9000111
:104A200004A90CA8FFF754FBDDE90D010C9A0091D5
:104A30004FF0000BB946109221070FD4009A4A4557
:104A400003DA914601E0A9F10109B9F1010F05DD91
:104A5000109AA9F10101515C3029F4D0B84202DA70
:104A600010F1040F03DA0121CDE9011010E0002854
:104A700003DC8344A9EB000102E0411C494500DD51
:104A80008946A0EB0B00401C01904FF000400290C3
:104A9000200705D40198484502DB4FF0FF30019014
:104AA00000208DF84B0002980DF14B07B0F1004F3C
:104AB00025D002200C902B200D90029800280CDAB3
:104AC000404202902D200D9007E00A210298FBF74A
:104AD00062FB3031029007F8011D0C99481E0C90C2
:104AE0000029F2DC02980028EFD1791E0D98087099
:104AF000307800F0200040F0450007F8020D11A8C2
:104B0000C01BC01D02901398007800B1012000EB7B
:104B10000901019801EBE071029801440398401AE1
:104B2000401E0390E00306D453462146179A03988B
:104B300000F05CF805441398007818B152461799B4
:104B400090476D1CE00323D553462146179A0398DE
:104B500000F04CF805441BE0BBF1000F07DB0098A8
:104B6000584504DD1098179910F80B0001E01799CB
:104B700030205246904701980BF1010B401E05F181
:104B80000105019004D12E205246179990476D1CC3
:104B9000B9F10001A9F10109DEDC05E017F8010B0C
:104BA0005246179990476D1C0299481E02900029A1
:104BB000F4DC53462146179A03989EE62D00000028
:104BC0002B000000200000002DE9F04104460025E4
:104BD0001E461746880404D405E039462020B04715
:104BE0006D1C641EF9D52846BDE8F0812DE9F04121
:104BF000044600251E469046C80301D5302700E034
:104C00002027880404D505E041463846B0476D1C8E
:104C1000641EF9D52846BDE8F0810A68531C0B6074
:104C2000107070470A68531C0B60107070470000CA
:104C300010B56FF00400FEF7C3FD0948094900688C
:104C4000B0FBF1F0C1B2084801EB41020170C2EBC8
:104C5000C1114FF6FF7202EAC101418010BD000090
:104C60003400002000127A00720000200B494988AD
:104C700048434FF0E021486100228A61086940F012
:104C8000010008610869C30701D0C003FAD50869AB
:104C900020F0010008618A61704700007200002066
:104CA0000B49097848434FF0E021486100228A61AE
:104CB000086940F0010008610869C30701D0C0031A
:104CC000FAD5086920F0010008618A617047000088
:104CD0007200002004490A885206FCD5024AC1B27B
:104CE000121D118070470000003801401CB50025DE
:104CF000FFF79EFF4FF4A060FDF766FF4FF47A3098
:104D000000F026FBFCF776FA00F08EFAFEF7E8FAE0
:104D1000FDF7FEFEED4E4FF4784010243080ECA0FD
:104D2000CDE900401E212346C8220846FDF7B3FE08
:104D30004FF47A70FFF79AFF4FF4FA7717E0E9A083
:104D4000CDE900401023C82232211E20FDF7A3FE2A
:104D50003846FFF78BFFE7A0CDE900401023C822BB
:104D600032211E20FDF797FE3846FFF77FFFFBF745
:104D7000EBFF0028E3D1E3A0CDE900401023D222CD
:104D800046211E20FDF787FEE5A0CDE90040102357
:104D9000C8225A211E20FDF77EFEE6A0CDE9004084
:104DA0001023C8226E211E20FDF775FEE3A0CDE979
:104DB00000401023C82282211E20FDF76CFE1F2018
:104DC0003080FCF73DF86420FFF750FFDFF8789360
:104DD0004FF00008A9F80080DCA0CDE90040C8220F
:104DE000102311461E20FDF756FEDAA0CDE9004043
:104DF0001023C822DC211E20FDF74DFED7A0CDE9EF
:104E000000401023C822F0211E20FDF744FEDFF8E9
:104E100054A34FF4AF7B00BFFEF708F9FEF7BAFAD0
:104E20000700F9D002460026032382215620009471
:104E3000FDF7F6FDCC480094032302789621562016
:104E4000FDF7EEFD682F52D012DC382F3BD008DC86
:104E5000022F7CD0102F1ED0182F2CD0222F29D11A
:104E600011E14A2F2BD05A2F1AD0622FF7D132E0FE
:104E7000B02F3AD008DC902F6AD0982F69D0A22F9B
:104E800025D0A82FEBD106E1C22F7BD0E02F7AD01E
:104E9000E22FE4D124E00323B4A50122009403E02F
:104EA0000323B3A50222009459461E20FDF7B8FD46
:104EB000CAF89481F4E0AFA5FBF7E2FEF0E0AEA5FE
:104EC000FBF708FCECE0ADA5FEF784FAE8E0ACA542
:104ED000FEF75EFCE4E0ABA50A20FBF7D1FFDFE0C4
:104EE000A9A50A20FBF712FCDAE0A8A5D8E0A8A53E
:104EF0004FEA0907FEF79AF8FEF74CFA682801D145
:104F0000761CF6B2388800047ED54FF4A073F022E8
:104F1000C8211E20CDF80080FCF726F938889D4A6C
:104F2000C0B2022802F8008001D003286DD19AA1F6
:104F30009848FBF722F978B90121CAF8941197A093
:104F4000CDE900401023C822F021562002E09CE069
:104F5000A3E0A4E0FDF79FFD93A18E48FBF70DF9B8
:104F600050B9CAF8948191A0CDE900401023C8221D
:104F7000F0215620FDF78FFD8FA18648FBF7FDF845
:104F800058B901E083E084E08CA0CDE90040102313
:104F9000C822F0215620FDF77EFD8AA17D48FBF74F
:104FA000ECF840B988A0CDE900401023C822F021D8
:104FB0005620FDF770FD86A17648FBF7DEF840B974
:104FC00084A0CDE900401023C822F0215620FDF72F
:104FD00062FD82A16F48FBF7D0F840B980A0CDE90F
:104FE00000401023C822F0215620FDF754FD7FA178
:104FF0006848FBF7C2F858B97DA0CDE900401023FE
:10500000C822F021562001E027E024E0FDF743FD0F
:1050100079A16048FBF7B1F840B978A0CDE900402C
:105020001023C822F0215620FDF735FD75A15948FF
:10503000FBF7A3F840B961A0CDE900401023C822D6
:10504000F0215620FDF727FD6FA15248FBF795F898
:1050500008B9761CF6B2A7F80080032E20D2BA2336
:10506000B422F0215620CDF80080FCF77DF8102303
:10507000C822F0215620CDE90045FDF70CFD0A209D
:10508000FFF7F4FD36E761A50AE061A508E061A538
:1050900006E061A504E061A502E061A500E061A56C
:1050A0004FF6FF700090BA23B422F0215620FCF78F
:1050B0005BF81023C822F0215620CDE90045FDF70A
:1050C000EAFC0A20FFF7D2FDA6E600004800002017
:1050D00048433035205E5F5E20424C5545544F4F6B
:1050E0005448000041544B2D4843303520457272DE
:1050F0006F722100506C6561736520436865636B56
:10510000212121004B4559313A524F4C45204B4506
:1051100059303A53454E442F53544F50000000002D
:1051200041544B2D48433035205374616E6462798D
:105130002100000053656E643A000000526563650B
:105140006976653A00000000700000204B45595612
:10515000414C3A004B4559434E543A0053594D4245
:105160004F4C3A0000802142690000203C000000C2
:105170003E0000005E000000760000004F4B000083
:105180003100000032000000330000002300000066
:105190002A0000001E710020313100007A756F7AFC
:1051A0006875616E0000000032320000796F757A18
:1051B0006875616E00000000333300007169616E34
:1051C0006A696E0034340000686F75747569000098
:1051D0003535000074696E677A68690036360000FC
:1051E0007975616E64697A6875616E0037370000A1
:1051F0006A69617375000000383800006A69616E81
:1052000073750000393900003130000034000000AF
:1052100035000000360000003700000038000000B4
:1052200039000000300000002DE9FF414FF0000878
:105230004746454646464446FDF714FDB8B9782131
:1052400000220846FDF74FFE4046FDF7BBFD28460D
:10525000FDF7EBFC3046FDF7C1FC2046FDF7F6FC00
:105260003846FDF7FBFD1C490020C1F8BC0141F6A2
:105270001F4142F21070FEF7DDFBFBF751FB0020EF
:10528000FBF71AFE0420FDF79DFD0420FDF7CDFC81
:105290000420FDF7DBFC0020FDF7E0FD0F4810A126
:1052A00002686846FEF7DEFE2A460EA16846FEF753
:1052B000D9FE22460FA16846FEF7D4FE074808A192
:1052C000183002686846FEF7CDFE0D494FF478406D
:1052D0000880BDE8FF81000000002442000000209B
:1052E0002573000053617475726174696F6E3A259D
:1052F00064000000436F6E74726173743A25640039
:10530000480000200FB410482DE9F04107AA069983
:10531000FEF7BCFE0C48FAF729FF86B200240B4DBD
:10532000094F0BE040212846FEF7EEFD0028F9D09A
:10533000395D2846FEF780FE641CA4B2B442F1D366
:10534000BDE8F0015DF814FB7673002000480040D2
:1053500070B5054686B0012144F20400FDF760FFF8
:105360004FF40070ADF8100003248DF8124018209F
:105370001D4E8DF8130004A93046FBF7EBFB3015EA
:10538000ADF8100004208DF8130004A93046FBF797
:10539000E1FB25208DF814008DF815408DF816409E
:1053A00001208DF8170005A8FDF7DCFB0020ADF803
:1053B0000400ADF80600ADF80800ADF80C000C20B4
:1053C0000A4CADF80A00009569462046FEF7DAFD62
:1053D000012240F225512046FEF7BCFD0121204666
:1053E000FEF74EFD06B070BD0008014000380140D8
:1053F000F0B5044687B001210820FDF711FF012117
:105400008804FDF7F5FE294E3046FEF743FD3015C2
:10541000ADF8100003258DF812501820244F8DF898
:10542000130004A93846FBF795FBF014ADF8100003
:1054300004208DF8130004A93846FBF78BFB009479
:105440000024ADF808400C20ADF80440ADF80A0087
:10545000ADF80640ADF80C4069463046FEF792FDC7
:1054600001213046FEF70CFD012240F22551304665
:10547000FEF770FD27208DF8140002208DF815002E
:105480008DF8165001208DF8170005A8FDF76AFB6E
:1054900041F61F416320FEF719FB064804800021F6
:1054A0000548FEF746FB07B0F0BD0000004800408D
:1054B000000C0140700000200014004000000000BB
:1054C0000000000000000000000000003F4000005D
:1054D00000000000000030004000300040000000EC
:1054E00009000BC03D000BC03D00090018C024405E
:1054F0007FE0224031800000180024C01B000D8096
:105500003240018003801C4027401C80074000403F
:10551000100060000000000000000000000000001B
:1055200000001F80204040200000402020401F80BD
:1055300000000000090006001F80060009000000AE
:10554000040004003F80040004000000001000601C
:10555000000000000000000004000400040004003B
:1055600004000000000000400000000000000000F7
:10557000002001C006003800400000001F802040CD
:10558000204020401F800000000010403FC000402D
:105590000000000018C021402240244018400000B4
:1055A00010802040244024401B80000002000D0099
:1055B00011003FC0014000003C80244024402440B2
:1055C000238000001F8024402440344003800000DA
:1055D0003000200027C03800200000001B8024403D
:1055E000244024401B8000001C0022C02240224096
:1055F0001F800000000000000840000000000000C4
:105600000000000004600000000000000000040032
:105610000A0011002080404009000900090009002B
:105620000900000000004040208011000A00040032
:105630001800200023402400180000001F80204094
:10564000274029401F400000004007C039000F00DC
:1056500001C0004020403FC0244024401B80000087
:105660001F802040204020403080000020403FC06C
:10567000204020401F80000020403FC024402E409A
:1056800030C0000020403FC024402E003000000009
:105690000F001080204022403380020020403FC095
:1056A000040004003FC02040204020403FC0204074
:1056B000204000000060202020203FC0200020006B
:1056C00020403FC024400B0030C0204020403FC05D
:1056D00020400040004000C03FC03C0003C03C00F0
:1056E0003FC0000020403FC00C4023003FC02000CE
:1056F0001F802040204020401F80000020403FC0ED
:1057000024402400180000001F802140214020E098
:105710001FA0000020403FC02440260019C00040C8
:1057200018C0244024402240318000003000204036
:105730003FC020403000000020003F80004000407B
:105740003F80200020003E0001C0070038002000FC
:10575000380007C03C0007C038000000204039C0B6
:10576000060039C0204000002000384007C0384003
:1057700020000000304021C02640384020C00000FA
:10578000000000007FE0402040200000000070008A
:105790000C000380004000000000402040207FE01B
:1057A0000000000000002000400020000000000079
:1057B0000010001000100010001000100000000089
:1057C000400000000000000000000280054005408D
:1057D00003C0004020003FC004400440038000009C
:1057E00000000380044004400640000000000380E5
:1057F000044024403FC000400000038005400540B5
:1058000003400000000004401FC02440244020004A
:10581000000002E0055005500650042020403FC023
:105820000440040003C000400000044027C00040C2
:105830000000000000100010041027E0000000002D
:1058400020403FC00140070004C0044020402040E9
:105850003FC000400040000007C0040007C0040033
:1058600003C00000044007C00440040003C000401F
:10587000000003800440044003800000041007F08F
:1058800004500440038000000000038004400450E2
:1058900007F00010044007C00240040004000000AC
:1058A000000006400540054004C000000000040060
:1058B0001F800440004000000400078000400440B6
:1058C00007C000400400070004C001800600040077
:1058D000060001C0070001C006000000044006C029
:1058E000010006C0044000000410071004E001801D
:1058F000060004000000044005C00640044000000B
:105900000000000004007BE04020000000000000D8
:105910000000FFF000000000000040207BE00400D9
:1059200000000000400080004000200020004000F7
:105930000000000000000000000000000000000067
:105940000000000000001FCC000C00000000000060
:105950000000080030006000080030006000000017
:10596000022003FC1E20022003FC1E200220000057
:1059700000000E1811043FFF10840C780000000096
:105980000F0010840F3800C00778188400780000DA
:1059900000780F8410C411240E9800E400840008DD
:1059A0000800680070000000000000000000000017
:1059B00000000000000007E018182004400200006A
:1059C000000040022004181807E00000000000005A
:1059D0000240024001800FF00180024002400000BE
:1059E0000080008000800FF80080008000800000B0
:1059F0000001000D000E000000000000000000008B
:105A00000000008000800080008000800080008016
:105A10000000000C000C000000000000000000006E
:105A20000000000600180060018006001800200039
:105A3000000007F0080810041004080807F0000030
:105A40000000080408041FFC00040004000000001B
:105A500000000E0C10141024104411840E0C0000D1
:105A600000000C1810041104110412880C700000BE
:105A7000000000E00320042408241FFC0024000090
:105A800000001F9810841104110410881070000089
:105A9000000007F008881104110418880070000045
:105AA00000001C00100010FC13001C00100000007F
:105AB00000000E3811441084108411440E38000088
:105AC00000000700088C10441044088807F000000C
:105AD000000000000000030C030C000000000000A8
